:020000040000FA
:06000000C3EF03F0120043
:0600080004EF04F01200F9
:060018000CEF04F01200E1
:06002A0001009E0700002A
:080030001700000002000000AF
:080038000A6A1E0E716E04013C
:10004000400E096F200E0A6F040E0B6F880E086FAA
:100050000401200E0E6F040E0F6F400E0C6F120085
:10006000550EA76EAA0EA76EA68212000401226B7F
:10007000010E236F1200086A3DD909E249D9080030
:10008000F550096E30D909C0EFFF082AF5D7F86A94
:100090001200F00E04012217840EA66E086A2AD9F7
:1000A00008E22CD90F0E08140F0801E1D9DF082A45
:1000B000F6D71200940EA66E086A1CD913E20850F7
:1000C000116E126A060ED89011361236E804FBE162
:1000D000136A12BE1368040122511124F8D8C0DF3C
:1000E000082AEBD7F86A1200A66A086A03D909E25F
:1000F00022510824A96EA680F6D8A8CFEFFF082ABF
:10010000F5D71200086AF6D80DE222510824A96E2C
:10011000EAD8EF50A86E040EA66EA2DFA6B2FED7F4
:10012000082AF1D71200C40EA66E086AE3D804E2CA
:10013000E5D896DF082AFAD7F86A12008BD8060E9F
:100140000D5C03E36D50020B01E083D00A0410E163
:1001500004010CBF0CD00401400E096F400E0401D5
:1001600008170401087D880E040108130A6A71D07B
:10017000040108BF6ED0086A04012051320A3BE036
:10018000CD0A2DE0F80A27E0020A21E0010A1BE06F
:10019000070A15E0010A0FE0030A09E0070A07E071
:1001A000060A01E047D062DF040E086E44D063DF28
:1001B000050E082640D06DDF010E086E3CD07ADFB8
:1001C000010E086E38D090DF050E082634D09ADF75
:1001D000010E086E30D0A7DF010E086E2CD06D9690
:1001E0000B6A0C6A0B06000E0C5A0B500C1001E047
:1001F000F9D7FF0020D0030E0401215D0BE10401BB
:100200002251010BF36EF346FD0E8B14F3108B6E2F
:10021000010E086E040E0401215D0BE10401225160
:10022000010BF36EF346FD0E8B14F3108B6E010E73
:10023000086E01D000D0010E0A6E08500AE008C016
:100240000DF4400E04010C1704010C7D880E04010E
:100250000C1312001750181004E1200E176E4E0EEA
:10026000186E1706000E185A6DA208D017501810F5
:100270002DE18A708A50010B12E125D00D5002E168
:100280008A9021D00D0402E18A8009D0020E0D5C13
:1002900002E18A8018D0030E0D5C03E18A908A8205
:1002A0001200050E0D5C05E1175018100FE18A7061
:1002B0000AD0060E0D5C0AE11750181007E18A708B
:1002C0008A50010B02E08A9212008A821200F36EB9
:1002D00023511220F46E24511320F86EF4CFF7FF4F
:1002E000F3CFF6FF12000850EA6A250FE96E040EFC
:1002F000EA22120004012151085C1200F4DFEFCF62
:1003000014F00850116E04D814C0F5FF0C00120050
:0C031000126A136A2251082467EF01F002
:04031C006C5002E03F
:10032000000E01D0010E00090BE0040100513C0B4E
:10033000E842E8420D0802E1A9EF01F0B2EF01F056
:100340006C5002E0000E01D0010E040901E018D843
:100350001200D5D8006A016A066A076A8AEC02F0C0
:100360007FD8D3D0020E005C09E158D8040100BD4B
:1003700002D0C80E01D0880E006F120062EF02F0AA
:10038000040E0D5C09E112C46EFF6E50000802E21B
:10039000050E01D0030E0D6E000409E10AD8040118
:1003A00004BD02D0C80E01D0880E046F120062EFA7
:1003B00002F0A5D8080E065C000E075804E289D8A2
:1003C00006C0EFFF03D085D8080EEF6E82D8EFCFBE
:1003D00005F4EF50126AE850065E1250075A180EE4
:1003E000046E040E056E75D8EF5017E00EA207D00C
:1003F00002C0F6FF03C0F7FF0800F55005D002C0A9
:10040000E9FF03C0EAFFEF5071D8022A000E032271
:10041000042A05225ED8EF06E6D777D070D859D8DF
:1004200001C4EFFF56D8EF5000010624066F000EFE
:100430000720076F180E026E040E036E4AD8EF50A5
:100440000EE002C0E9FF03C0EAFFEF504FD8042AD4
:10045000000E0522022A03223CD8EF06EFD755D022
:10046000015005E13BD8840E006F040118D004014F
:1004700010AF17D00650165D0750175904E216C486
:1004800006F017C407F095DF010E006E27D8800E26
:10049000006F0401180E066F040E076FC80E046F7C
:1004A0000FD0020E006E0401056BC80E046F04012C
:1004B000080E016F180E026F040E036FC80E006F56
:1004C0006D981200006A0AD8880E006F0401046B50
:1004D0001200D9CFE9FFDACFEAFF12000401080EBB
:1004E000016F100E026F040E036F1200E66E04C05F
:1004F000E9FF05C0EAFFE552E750EF6E1200D9CFE1
:10050000E6FFE1CFD9FFE6521200E552E552E7CF10
:04051000D9FF1200FD
:0C05140004011051600BE842E842E8428C
:10052000E842E842000901E012001151080A2FE0F8
:10053000010A2BE00F0A08E0030A01E01200010E95
:10054000016E040E0D6E1200010E016E130506E120
:10055000500E026E070E036E120E11D0020E135DC6
:1005600006E1620E026E070E036E200E08D0030E27
:10057000135D08E1820E026E070E036E040E066E16
:10058000076A01D0016A0E821200D1EF02F0010E5B
:10059000016E0F0E026E000E036E0E92010E066EBD
:1005A0001200010E016E12C40FF00401125103E19A
:0E05B000050E0D6E1200060E0D6E1CEF00F013
:0205BE00080E25
:1005C0006D6E6DBAFED7686A110E696E020E0D6E01
:1005D00012006850040B06E06950040B03E06D92B2
:1005E000699468946850010B04E06950010B01E0C4
:1005F00026D86850100B09E06950100B06E069849A
:1006000068986D82A08A0300A19A6850200B09E0C7
:100610006950200B06E070A003D062EC02F07090ED
:10062000689A030E0D5C01E209D06850080B06E0E1
:100630006950080B03E08EEC01F068961200686ABE
:100640007B0E696E6E6A160E706E68A602D0689692
:10065000FCD76D9862EC02F00F6A030E0D6E12006B
:100660002A0EF66E000EF76E000EF86E00010900FD
:10067000F550656F0900F550666F03E1656701D0BD
:100680003DD00900F550606F0900F550616F090019
:10069000F550626F09000900F550E96E0900F55048
:1006A000EA6E090009000900F550636F0900F55072
:1006B000646F09000900F6CF67F0F7CF68F0F8CF54
:1006C00069F060C0F6FF61C0F7FF62C0F8FF00018B
:1006D000635302E1645307E00900F550EE6E6307CF
:1006E000F8E26407F9D767C0F6FF68C0F7FF69C092
:0E06F000F8FF00016507000E665BBFD7120021
:0206FE00D9CF52
:10070000E6FFE1CFD9FFE652D9CFE9FFDACFEAFF22
:10071000C1CFEFFF0F0EC11282A408D0D9CFE9FFDD
:10072000DACFEAFFEF50C16E00EF04F08B929492A3
:100730008A6A936A140E6F6EDFEC02F0E9EC02F045
:100740009EEC00F0FBD7E552E552E7CFD9FF12004F
:100750001201000200000008D8040B000000000095
:10076000000109022000010100803209040000029A
:10077000000000000705010240000007058102405B
:060780000000040309045F
:0A07860013EE00F023EE00F0F86A15
:0E079000169C30EC03F07FEC03F0FDD7120056
:02079E00000059
:020000040020DA
:080000000001020304050607DC
:020000040030CA
:0E000000240E3F1EFF8181FF0FC00FA00F4096
:00000001FF
