:020000040000FA
:1000000008EF00F0C26A0E0EC16EA60EC06EC2806E
:10001000926A936A946A6D966F86070EB46E0F0E9D
:10002000C16EA69E806A816A826A896A8A6A8B6AC0
:100030002C6A2D6A2E6A2F6A306A316A326A336AF4
:10004000346A356A366A376A386A396A3A6A3B6AA4
:100050003C6A3D6A3E6A3F6A406A416A426A436A54
:10006000246A256A266A276A206A216A226A236A24
:1000700038EF00F07AEC01F0D8B0120023502718C6
:10008000376E18EC01F0D8902750231837AE800F48
:100090001200376A54EC01F0D8A077EC01F0D8B028
:1000A000120027EC01F04FEC01F01F0E386E8DECC2
:1000B00001F02B34D8B018EC01F0D8A02334D8B01C
:1000C0001200382E57EF00F037B057EC01F0120055
:1000D000376A24502510261027100008D8A054ECA9
:1000E00001F0D8A077EC01F0D8B01200286A296A94
:1000F0002A6A2B6A8DEC01F01F0E386E8DEC01F030
:1001000027502B5CD8A491EF00F026502A5CD8A48D
:1001100091EF00F02550295CD8A491EF00F0245015
:10012000285CD8A0A4EF00F02450285E2550D8A069
:10013000253C295E2650D8A0263C2A5E2750D8A010
:10014000273C2B5ED8902080382E7EEF00F037B011
:1001500057EC01F01200376A54EC01F0D89091ECA2
:1001600001F027502B5CD8A4C2EF00F026502A5C87
:10017000D8A491EF00F02550295CD8A4C2EF00F07C
:100180002450285CD8A0D1EF00F0203ED1EF00F041
:10019000213ED1EF00F0223ED1EF00F0232AD8B467
:1001A000120037B057EC01F012002334D8B012001F
:1001B00027EC01F0206A216A226A236A246A256AF0
:1001C000266A276A100E386E283629362A362B36CC
:1001D000243625362636283629362A362B36243636
:1001E000253626362036213622362250265CD8A4E3
:1001F00001EF01F02150255CD8A401EF01F020505F
:10020000245CD8A00FEF01F02050245E2150D8A02C
:10021000213C255E2250D8A0223C265E20822090E0
:10022000382EE4EF00F0D890223221322032120032
:10023000245020262550D8B0253C21262650D8B061
:10024000263C22262750D8B0273C232612002050D7
:10025000286E2150296E22502A6E23502B6E1200D8
:100260002450286E2550296E26502A6E27502B6E5A
:1002700012002050246E2150256E2250266E2350ED
:10028000276E12002452206E2552216E2652226EB5
:100290002752236E246A256A266A276A1200206A7A
:1002A000216A226A236A12002334D8A01200235044
:1002B000800B201E211E221E231E203E67EF01F010
:1002C000213E67EF01F0223E67EF01F0232A372A33
:1002D0002324120027EC01F042EC01F02852246E96
:1002E0002952256E2A52266E2B52276E1200273471
:1002F000D8A012002750800B241E251E261E271E64
:10030000243E8AEF01F0253E8AEF01F0263E8AEF77
:1003100001F0272A372A27241200203621362236D8
:100320002336283629362A362B3612002C6A2D6AB7
:100330002E6A2F6A306A316A326A336A346A356AE1
:10034000366A276A266A256A246A3D6A3E6A3F6AD7
:10035000406A1200F926410C420C430C440C450C37
:10036000460C470C480C4A0C4B0C4C0C4D0C4E0CDC
:100370004F0C500C520C8A828A9212004AEC01F007
:100380004FEC01F0456A466A8B94BBEC01F0BBEC84
:1003900001F081A0CEEF01F0020E466E4AEC01F0B2
:1003A0004FEC01F0BBEC01F081A0E3EF01F0455010
:1003B000246E4650256E010E216E3EEC00F020505A
:1003C000456E2150466E4AEC01F04FEC01F0BBEC5B
:1003D00001F081A0FCEF01F04650256E4550246EDF
:1003E000800E206E3EEC00F02050456E2150466E8F
:1003F0004AEC01F04FEC01F04AEC01F04FEC01F057
:10040000BBEC01F081A015EF02F04650256E45507F
:10041000246E400E206E3EEC00F02050456E2150C0
:10042000466E4AEC01F04FEC01F04AEC01F04FEC63
:1004300001F0BBEC01F081A02EEF02F04650256EDA
:100440004550246E200E206E3EEC00F02050456E8C
:100450002150466E4AEC01F04FEC01F04AEC01F0FD
:100460004FEC01F0BBEC01F081A047EF02F04650E9
:10047000256E4550246E100E206E3EEC00F020508C
:10048000456E2150466E4AEC01F04FEC01F0BBEC9A
:1004900001F081A0E4EF02F0452AD8B452EF02F057
:1004A0005FEF02F0462AD8B458EF02F05FEF02F097
:1004B000472AD8B45EEF02F05FEF02F0482A452ADF
:1004C000D8B465EF02F072EF02F0462AD8B46BEFB1
:1004D00002F072EF02F0472AD8B471EF02F072EF27
:1004E00002F0482A452AD8B478EF02F085EF02F0EE
:1004F000462AD8B47EEF02F085EF02F0472AD8B43E
:1005000084EF02F085EF02F0482A452AD8B48BEF39
:1005100002F098EF02F0462AD8B491EF02F098EF7B
:1005200002F0472AD8B497EF02F098EF02F0482A79
:10053000452AD8B49EEF02F0ABEF02F0462AD8B4B9
:10054000A4EF02F0ABEF02F0472AD8B4AAEF02F012
:10055000ABEF02F0482A452AD8B4B1EF02F0BEEF63
:1005600002F0462AD8B4B7EF02F0BEEF02F0472AF5
:10057000D8B4BDEF02F0BEEF02F0482A452AD8B445
:10058000C4EF02F0D1EF02F0462AD8B4CAEF02F06D
:10059000D1EF02F0472AD8B4D0EF02F0D1EF02F049
:1005A000482A452AD8B4D7EF02F0E4EF02F0462AF1
:1005B000D8B4DDEF02F0E4EF02F0472AD8B4E3EF5D
:1005C00002F0E4EF02F0482ABBEC01F081A035EF25
:1005D00003F0452AD8B4EFEF02F0FCEF02F0462A10
:1005E000D8B4F5EF02F0FCEF02F0472AD8B4FBEFE5
:1005F00002F0FCEF02F0482A452AD8B402EF03F0DB
:100600000FEF03F0462AD8B408EF03F00FEF03F022
:10061000472AD8B40EEF03F00FEF03F0482A452A1B
:10062000D8B415EF03F022EF03F0462AD8B41BEF3D
:1006300003F022EF03F0472AD8B421EF03F022EFB2
:1006400003F0482A452AD8B428EF03F035EF03F029
:10065000462AD8B42EEF03F035EF03F0472AD8B47A
:1006600034EF03F035EF03F0482ABBEC01F081A032
:1006700060EF03F0452AD8B440EF03F04DEF03F0EC
:10068000462AD8B446EF03F04DEF03F0472AD8B41A
:100690004CEF03F04DEF03F0482A452AD8B453EF4E
:1006A00003F060EF03F0462AD8B459EF03F060EF8F
:1006B00003F0472AD8B45FEF03F060EF03F0482A55
:1006C000BBEC01F081A078EF03F0452AD8B46BEFC2
:1006D00003F078EF03F0462AD8B471EF03F078EF17
:1006E00003F0472AD8B477EF03F078EF03F0482AF5
:1006F000BBEC01F0BBEC01F0BBEC01F0BBEC01F09A
:0C070000BBEC01F0BBEC01F08B8412009C
:020000040030CA
:04000000020E181EB6
:02000500038076
:060008000FC00FE00F40E5
:00000001FF
